:100000000C942A000C943F000C943F000C943F0089
:100010000C943F000C943F000C943F000C943F0064
:100020000C943F000C943F000C943F000C943F0054
:100030000C943F000C943F000C943F000C943F0044
:100040000C943F000C943F000C943F000C943F0034
:100050000C943F0011241FBECFE5D8E0DEBFCDBF1A
:1000600010E0A0E6B0E0ECEDF1E002C005900D92EA
:10007000AA37B107D9F70E9441000C94EC000C9408
:1000800000000E94750080E690E00E94C900FFCF4A
:10009000CF93DF931F92CDB7DEB7898385B38F7B74
:1000A00085BB9981907F92BB806885BB85E08A95EE
:1000B000F1F70000AF988FE891E00197F1F700C0E9
:1000C000000089818295807F82BBAF9A95E09A95E6
:1000D000F1F70000AF988FE891E00197F1F700C0C9
:1000E00000000F90DF91CF9108958FE59AEE019770
:1000F000F1F700C0000084B39FEF91BB806C84BB1C
:1001000012BAAF9883E30E94480082E30E9448003D
:1001100088E20E9448008EE00E94480081E00E9430
:1001200048008FE39FE10197F1F700C0000086E0EF
:100130000E9448000895CF93DF931F92CDB7DEB79A
:10014000898385B3982F906495BB9981907F92BBEA
:10015000806C85BB85E08A95F1F70000AF988FE849
:1001600091E00197F1F700C0000089818295807FBE
:1001700082BBAF9A95E09A95F1F70000AF988FE8AF
:1001800091E00197F1F700C000000F90DF91CF914F
:1001900008950F931F93CF938C01FC0180818111EF
:1001A00013C00EC00E949B00CF3019F480EC0E9457
:1001B0004800CF5FF801EC0FF11D80818111F2CF73
:1001C0008FE00E94480004C00E949B00C0E0F1CF75
:0C01D000CF911F910F910895F894FFCF7C
:1001DC0057656C636F6D65204B6565702020202022
:0A01EC00536D696C65203B2900008B
:00000001FF
